{
  "contractName": "Attendance",
  "abi": [
    {
      "anonymous": false,
      "inputs": [
        {
          "indexed": false,
          "internalType": "string",
          "name": "date",
          "type": "string"
        },
        {
          "indexed": false,
          "internalType": "address",
          "name": "attendee",
          "type": "address"
        }
      ],
      "name": "AttendanceMarked",
      "type": "event"
    },
    {
      "inputs": [
        {
          "internalType": "string",
          "name": "date",
          "type": "string"
        }
      ],
      "name": "markAttendance",
      "outputs": [],
      "stateMutability": "nonpayable",
      "type": "function"
    },
    {
      "inputs": [
        {
          "internalType": "string",
          "name": "date",
          "type": "string"
        },
        {
          "internalType": "address",
          "name": "attendee",
          "type": "address"
        }
      ],
      "name": "checkAttendance",
      "outputs": [
        {
          "internalType": "bool",
          "name": "",
          "type": "bool"
        }
      ],
      "stateMutability": "view",
      "type": "function"
    }
  ],
  "bytecode": "0x608060405234801561000f575f80fd5b5061056e8061001d5f395ff3fe608060405234801561000f575f80fd5b5060043610610034575f3560e01c806359267a00146100385780635ce7a9d314610054575b5f80fd5b610052600480360381019061004d91906102bc565b610084565b005b61006e60048036038101906100699190610361565b6101e0565b60405161007b91906103d8565b60405180910390f35b5f828260405161009592919061042d565b90815260200160405180910390205f015f3373ffffffffffffffffffffffffffffffffffffffff1673ffffffffffffffffffffffffffffffffffffffff1681526020019081526020015f205f9054906101000a900460ff161561012d576040517f08c379a00000000000000000000000000000000000000000000000000000000081526004016101249061049f565b60405180910390fd5b60015f838360405161014092919061042d565b90815260200160405180910390205f015f3373ffffffffffffffffffffffffffffffffffffffff1673ffffffffffffffffffffffffffffffffffffffff1681526020019081526020015f205f6101000a81548160ff0219169083151502179055507ff61279d32de058f920395078b0092668c28e05bd1efe61fe60f7ec9ddce118908282336040516101d493929190610508565b60405180910390a15050565b5f8084846040516101f292919061042d565b90815260200160405180910390205f015f8373ffffffffffffffffffffffffffffffffffffffff1673ffffffffffffffffffffffffffffffffffffffff1681526020019081526020015f205f9054906101000a900460ff1690509392505050565b5f80fd5b5f80fd5b5f80fd5b5f80fd5b5f80fd5b5f8083601f84011261027c5761027b61025b565b5b8235905067ffffffffffffffff8111156102995761029861025f565b5b6020830191508360018202830111156102b5576102b4610263565b5b9250929050565b5f80602083850312156102d2576102d1610253565b5b5f83013567ffffffffffffffff8111156102ef576102ee610257565b5b6102fb85828601610267565b92509250509250929050565b5f73ffffffffffffffffffffffffffffffffffffffff82169050919050565b5f61033082610307565b9050919050565b61034081610326565b811461034a575f80fd5b50565b5f8135905061035b81610337565b92915050565b5f805f6040848603121561037857610377610253565b5b5f84013567ffffffffffffffff81111561039557610394610257565b5b6103a186828701610267565b935093505060206103b48682870161034d565b9150509250925092565b5f8115159050919050565b6103d2816103be565b82525050565b5f6020820190506103eb5f8301846103c9565b92915050565b5f81905092915050565b828183375f83830152505050565b5f61041483856103f1565b93506104218385846103fb565b82840190509392505050565b5f610439828486610409565b91508190509392505050565b5f82825260208201905092915050565b7f417474656e64616e636520616c7265616479206d61726b65642e0000000000005f82015250565b5f610489601a83610445565b915061049482610455565b602082019050919050565b5f6020820190508181035f8301526104b68161047d565b9050919050565b5f601f19601f8301169050919050565b5f6104d88385610445565b93506104e58385846103fb565b6104ee836104bd565b840190509392505050565b61050281610326565b82525050565b5f6040820190508181035f8301526105218185876104cd565b905061053060208301846104f9565b94935050505056fea264697066735822122062ff7c718ad14605a00d64206a34c5957b87eec35bc09971730d7d1abf674b0964736f6c63430008150033",
  "immutableReferences": {},
  "source": "// SPDX-License-Identifier: MIT\r\npragma solidity ^0.8.0;\r\n\r\ncontract Attendance {\r\n    struct AttendanceRecord {\r\n        mapping(address => bool) isPresent;\r\n    }\r\n\r\n    mapping(string => AttendanceRecord) private attendanceRecords;\r\n\r\n    // Events\r\n    event AttendanceMarked(string date, address attendee);\r\n\r\n    // Mark attendance for a given date\r\n    function markAttendance(string calldata date) external {\r\n        require(!attendanceRecords[date].isPresent[msg.sender], \"Attendance already marked.\");\r\n\r\n        attendanceRecords[date].isPresent[msg.sender] = true;\r\n        emit AttendanceMarked(date, msg.sender);\r\n    }\r\n\r\n    // Check if a specific address marked attendance on a given date\r\n    function checkAttendance(string calldata date, address attendee) external view returns (bool) {\r\n        return attendanceRecords[date].isPresent[attendee];\r\n    }\r\n}\r\n",
  "sourcePath": "D:\\Blockchain Project\\Blockchain_Project\\blockchain\\contracts\\Attendance.sol",
  "compiler": {
    "name": "solc",
    "version": "0.8.21+commit.d9974bed.Emscripten.clang"
  },
  "schemaVersion": "3.4.16",
  "updatedAt": "2023-12-02T14:20:44.209Z",
  "devdoc": {
    "kind": "dev",
    "methods": {},
    "version": 1
  },
  "userdoc": {
    "kind": "user",
    "methods": {},
    "version": 1
  }
}