{
  "contractName": "Attendance",
  "abi": [
    {
      "inputs": [
        {
          "internalType": "string",
          "name": "date",
          "type": "string"
        }
      ],
      "name": "markAttendance",
      "outputs": [],
      "stateMutability": "nonpayable",
      "type": "function"
    },
    {
      "inputs": [
        {
          "internalType": "string",
          "name": "date",
          "type": "string"
        }
      ],
      "name": "getAttendance",
      "outputs": [
        {
          "internalType": "bool",
          "name": "",
          "type": "bool"
        }
      ],
      "stateMutability": "view",
      "type": "function"
    },
    {
      "inputs": [
        {
          "internalType": "string",
          "name": "date",
          "type": "string"
        }
      ],
      "name": "getAttendanceDate",
      "outputs": [
        {
          "internalType": "string",
          "name": "",
          "type": "string"
        }
      ],
      "stateMutability": "view",
      "type": "function"
    }
  ],
  "bytecode": "0x608060405234801561000f575f80fd5b506109498061001d5f395ff3fe608060405234801561000f575f80fd5b506004361061003f575f3560e01c80633e99bfba1461004357806359267a001461007357806364a485271461008f575b5f80fd5b61005d60048036038101906100589190610475565b6100bf565b60405161006a9190610536565b60405180910390f35b61008d60048036038101906100889190610475565b61016f565b005b6100a960048036038101906100a49190610475565b6102b9565b6040516100b69190610570565b60405180910390f35b60605f826040516100d091906105c3565b908152602001604051809103902060010180546100ec90610606565b80601f016020809104026020016040519081016040528092919081815260200182805461011890610606565b80156101635780601f1061013a57610100808354040283529160200191610163565b820191905f5260205f20905b81548152906001019060200180831161014657829003601f168201915b50505050509050919050565b5f8160405161017e91906105c3565b90815260200160405180910390205f015f3373ffffffffffffffffffffffffffffffffffffffff1673ffffffffffffffffffffffffffffffffffffffff1681526020019081526020015f205f9054906101000a900460ff1615610216576040517f08c379a000000000000000000000000000000000000000000000000000000000815260040161020d90610680565b60405180910390fd5b60015f8260405161022791906105c3565b90815260200160405180910390205f015f3373ffffffffffffffffffffffffffffffffffffffff1673ffffffffffffffffffffffffffffffffffffffff1681526020019081526020015f205f6101000a81548160ff021916908315150217905550805f8260405161029891906105c3565b908152602001604051809103902060010190816102b59190610844565b5050565b5f80826040516102c991906105c3565b90815260200160405180910390205f015f3373ffffffffffffffffffffffffffffffffffffffff1673ffffffffffffffffffffffffffffffffffffffff1681526020019081526020015f205f9054906101000a900460ff169050919050565b5f604051905090565b5f80fd5b5f80fd5b5f80fd5b5f80fd5b5f601f19601f8301169050919050565b7f4e487b71000000000000000000000000000000000000000000000000000000005f52604160045260245ffd5b61038782610341565b810181811067ffffffffffffffff821117156103a6576103a5610351565b5b80604052505050565b5f6103b8610328565b90506103c4828261037e565b919050565b5f67ffffffffffffffff8211156103e3576103e2610351565b5b6103ec82610341565b9050602081019050919050565b828183375f83830152505050565b5f610419610414846103c9565b6103af565b9050828152602081018484840111156104355761043461033d565b5b6104408482856103f9565b509392505050565b5f82601f83011261045c5761045b610339565b5b813561046c848260208601610407565b91505092915050565b5f6020828403121561048a57610489610331565b5b5f82013567ffffffffffffffff8111156104a7576104a6610335565b5b6104b384828501610448565b91505092915050565b5f81519050919050565b5f82825260208201905092915050565b5f5b838110156104f35780820151818401526020810190506104d8565b5f8484015250505050565b5f610508826104bc565b61051281856104c6565b93506105228185602086016104d6565b61052b81610341565b840191505092915050565b5f6020820190508181035f83015261054e81846104fe565b905092915050565b5f8115159050919050565b61056a81610556565b82525050565b5f6020820190506105835f830184610561565b92915050565b5f81905092915050565b5f61059d826104bc565b6105a78185610589565b93506105b78185602086016104d6565b80840191505092915050565b5f6105ce8284610593565b915081905092915050565b7f4e487b71000000000000000000000000000000000000000000000000000000005f52602260045260245ffd5b5f600282049050600182168061061d57607f821691505b6020821081036106305761062f6105d9565b5b50919050565b7f417474656e64616e636520616c7265616479206d61726b65642e0000000000005f82015250565b5f61066a601a836104c6565b915061067582610636565b602082019050919050565b5f6020820190508181035f8301526106978161065e565b9050919050565b5f819050815f5260205f209050919050565b5f6020601f8301049050919050565b5f82821b905092915050565b5f600883026106fa7fffffffffffffffffffffffffffffffffffffffffffffffffffffffffffffffff826106bf565b61070486836106bf565b95508019841693508086168417925050509392505050565b5f819050919050565b5f819050919050565b5f61074861074361073e8461071c565b610725565b61071c565b9050919050565b5f819050919050565b6107618361072e565b61077561076d8261074f565b8484546106cb565b825550505050565b5f90565b61078961077d565b610794818484610758565b505050565b5b818110156107b7576107ac5f82610781565b60018101905061079a565b5050565b601f8211156107fc576107cd8161069e565b6107d6846106b0565b810160208510156107e5578190505b6107f96107f1856106b0565b830182610799565b50505b505050565b5f82821c905092915050565b5f61081c5f1984600802610801565b1980831691505092915050565b5f610834838361080d565b9150826002028217905092915050565b61084d826104bc565b67ffffffffffffffff81111561086657610865610351565b5b6108708254610606565b61087b8282856107bb565b5f60209050601f8311600181146108ac575f841561089a578287015190505b6108a48582610829565b86555061090b565b601f1984166108ba8661069e565b5f5b828110156108e1578489015182556001820191506020850194506020810190506108bc565b868310156108fe57848901516108fa601f89168261080d565b8355505b6001600288020188555050505b50505050505056fea264697066735822122009b2a114e51b13d803fb434008a53fab5b7fcc96000c589c371dacca94ff159464736f6c63430008150033",
  "immutableReferences": {},
  "source": "// contracts/Attendance.sol\r\n// SPDX-License-Identifier: MIT\r\npragma solidity ^0.8.0;\r\n\r\ncontract Attendance {\r\n    struct AttendanceRecord {\r\n        mapping(address => bool) isPresent;\r\n        string date;\r\n    }\r\n\r\n    mapping(string => AttendanceRecord) attendanceRecords;\r\n\r\n    function markAttendance(string memory date) public {\r\n        require(!attendanceRecords[date].isPresent[msg.sender], \"Attendance already marked.\");\r\n\r\n        attendanceRecords[date].isPresent[msg.sender] = true;\r\n        attendanceRecords[date].date = date;\r\n    }\r\n\r\n    function getAttendance(string memory date) public view returns (bool) {\r\n        return attendanceRecords[date].isPresent[msg.sender];\r\n    }\r\n\r\n    function getAttendanceDate(string memory date) public view returns (string memory) {\r\n        return attendanceRecords[date].date;\r\n    }\r\n}\r\n",
  "sourcePath": "D:\\Blockchain Project\\Blockchain_Project\\blockchain\\contracts\\Attendance.sol",
  "compiler": {
    "name": "solc",
    "version": "0.8.21+commit.d9974bed.Emscripten.clang"
  },
  "schemaVersion": "3.4.16",
  "updatedAt": "2023-12-02T13:50:33.796Z",
  "devdoc": {
    "kind": "dev",
    "methods": {},
    "version": 1
  },
  "userdoc": {
    "kind": "user",
    "methods": {},
    "version": 1
  }
}